:020000040800F2
:1000000000100020D51D00086D09000871090008C6
:1000100000000000000000000000000000000000E0
:10002000000000000000000000000000750900084A
:100030000000000000000000790900087D090008A8
:10004000251E000800000000251E0008251E0008CF
:10005000251E0008251E0008251E0008251E000874
:1000600000000000251E0008251E0008251E0008AF
:10007000251E0008251E0008251E0008000000009F
:10008000251E00080000000000000000251E0008DA
:1000900000000000251E0008251E0008251E00087F
:1000A00000000000251E000800000000251E0008BA
:1000B0000000000000000000000000000000000040
:1000C00010B5064C2378002B07D1054B002B02D02E
:1000D000044800E000BF0123237010BD9C000020F5
:1000E00000000000D02E0008084B10B5002B03D0F4
:1000F0000749084800E000BF07480368002B00D10B
:1001000010BD064B002BFBD09847F9E7000000001C
:10011000A0000020D02E00089C000020000000005D
:10012000002243088B4274D303098B425FD3030A36
:100130008B4244D3030B8B4228D3030C8B420DD349
:10014000FF22090212BA030C8B4202D312120902D7
:1001500065D0030B8B4219D300E0090AC30B8B4215
:1001600001D3CB03C01A5241830B8B4201D38B03C3
:10017000C01A5241430B8B4201D34B03C01A524168
:10018000030B8B4201D30B03C01A5241C30A8B42AB
:1001900001D3CB02C01A5241830A8B4201D38B0296
:1001A000C01A5241430A8B4201D34B02C01A52413A
:1001B000030A8B4201D30B02C01A5241CDD2C309AC
:1001C0008B4201D3CB01C01A524183098B4201D328
:1001D0008B01C01A524143098B4201D34B01C01A13
:1001E000524103098B4201D30B01C01A5241C3088B
:1001F0008B4201D3CB00C01A524183088B4201D3FA
:100200008B00C01A524143088B4201D34B00C01AE5
:100210005241411A00D20146524110467047FFE751
:1002200001B5002000F0F0F802BDC0460029F7D06B
:1002300076E7704703460B437FD4002243088B4286
:1002400074D303098B425FD3030A8B4244D3030B5D
:100250008B4228D3030C8B420DD3FF22090212BA22
:10026000030C8B4202D31212090265D0030B8B429E
:1002700019D300E0090AC30B8B4201D3CB03C01A88
:100280005241830B8B4201D38B03C01A5241430B63
:100290008B4201D34B03C01A5241030B8B4201D353
:1002A0000B03C01A5241C30A8B4201D3CB02C01ABE
:1002B0005241830A8B4201D38B02C01A5241430A36
:1002C0008B4201D34B02C01A5241030A8B4201D325
:1002D0000B02C01A5241CDD2C3098B4201D3CB01CC
:1002E000C01A524183098B4201D38B01C01A52417B
:1002F00043098B4201D34B01C01A524103098B427F
:1003000001D30B01C01A5241C3088B4201D3CB0069
:10031000C01A524183088B4201D38B00C01A52414C
:1003200043088B4201D34B00C01A5241411A00D2FC
:1003300001465241104670475DE0CA0F00D0494265
:10034000031000D34042534000229C4603098B42D5
:100350002DD3030A8B4212D3FC22890112BA030A5D
:100360008B420CD3890192118B4208D389019211DF
:100370008B4204D389013AD0921100E08909C30964
:100380008B4201D3CB01C01A524183098B4201D366
:100390008B01C01A524143098B4201D34B01C01A51
:1003A000524103098B4201D30B01C01A5241C308C9
:1003B0008B4201D3CB00C01A524183088B4201D338
:1003C0008B00C01A5241D9D243088B4201D34B0053
:1003D000C01A5241411A00D20146634652415B1095
:1003E000104601D34042002B00D549427047634676
:1003F0005B1000D3404201B5002000F005F802BDBB
:100400000029F8D016E770477047C046F0B589B0AC
:100410001422002103A801F036FD264B59698022E1
:1004200092021143596159690A400192019A59692E
:100430008022D202114359615B691A400292029BE9
:100440009025ED0500228021280001F057FC1A4F6D
:1004500000220221380001F051FC602303930024A4
:100460000494059403A9280001F086FB80230393DC
:10047000012604960594069403A9280001F07CFB4C
:100480000223039304960594069403A9380001F00F
:1004900073FB01220421280001F030FC04230393A4
:1004A00004960594069603A9280001F065FB09B09F
:1004B000F0BDC046001002400004004810B500F036
:1004C00021FE04000221084801F01EFC642000F017
:1004D0001FFE00F017FE001B044B9842F2D972B6C3
:1004E00001F04CFC10BDC04600040048B80B0000F1
:1004F00010B51248124B0360124B43600023836017
:100500000122C260036143618361C361036200F041
:100510007BFF002801D0FFF7D1FF0021074801F041
:10052000D5FA002801D0FFF7C9FF0021034801F0E8
:10053000F9FA002801D0FFF7C1FF10BDCC0400205C
:10054000005400400E09002070B500F0BFFD00F01F
:1005500065FAFFF75BFFFFF7CBFF00F04BF911489F
:1005600001F02AFD00F0CEFD050000F0CBFD0400F7
:1005700000F0C8FD401B2C23FF33984204D900F043
:10058000C1FD050000F064F900F0BCFD001B064B46
:100590009842EDD900F0B6FD04000221034801F0B5
:1005A000B3FBE5E7AC2F0008E703000000040048B8
:1005B00010B508001400110000F0BAF9200010BDB9
:1005C0000220704710B5FFF7FBFF0100014801F062
:1005D00063FC10BD082F000810B50F4801F0ECFCBB
:1005E000012411E061000A2302220C4801F0AEF957
:1005F000002804D121000A4801F04EFC02E02E2020
:1006000001F064FC0134E4B263B2002BEADA05487D
:1006100001F0D2FC10BDC046142F0008CC0400200D
:100620002C2F0008382F0008F8B504000E00170022
:10063000002805DA684B3C221A7201325A7204E033
:10064000654B3D221A7201325A72644B9C4206DCA1
:1006500063492000FFF7EEFD3030C0B200E03220E9
:10066000604DA8705E492000FFF7CAFE0800FA211D
:100670008900FFF7DFFD3030E870FA2189002000A3
:10068000FFF7BEFE08006421FFF7D4FD303028716B
:1006900064212000FFF7B4FE08000A21FFF7CAFD1D
:1006A000303068710A212000FFF7AAFE3031A971AD
:1006B0004D4B9E4207DCFA2189003000FFF7BAFD5E
:1006C0003030C0B200E03520484CE070FA2189009B
:1006D0003000FFF795FE08006421FFF7ABFD3030D6
:1006E000207164213000FFF78BFE08000A21FFF71C
:1006F000A1FD303060710A213000FFF781FE3031FA
:10070000A17137493800FFF795FD3030324CA070A9
:1007100033493800FFF774FE0800FA218900FFF71B
:1007200089FD3030E070FA2189003800FFF768FE5B
:1007300008006421FFF77EFD30306071022307E07E
:10074000284AD25C302A10D12021264AD1540133C4
:10075000052BF5DD032309E0244AD25C302A12D1AF
:100760002021224AD154013300E00323052BF3DD7D
:10077000022309E0184AD25C302A07D12021164A08
:10078000D154013300E00223022BF3DD002000F0FE
:1007900059FA0021022000F01DFB154C01232168AD
:1007A0006268104800F000FB1221022000F012FBEA
:1007B0000123216862680D4800F0F6FA2421022026
:1007C00000F008FB012321686268034800F0ECFA9E
:1007D00000F04AFAF8BDC0460C0000201F4E000091
:1007E00010270000180000208713000000000020E0
:1007F0002400002010B500F0A9F8104A1049114853
:1008000001F04AFBFFF7DEFE00F006FB002804D0F3
:100810000D4801F0D1FBFFF7DFFEFFF7D1FE012805
:100820000AD100F0E5FB002806D0084801F0C4FB1F
:10083000FFF7D2FEFFF742FE10BDC0463C2F000876
:10084000482F0008502F0008602F0008742F000860
:1008500070B582B000230193009301AA694601207C
:1008600000F08CFB1E210098FFF7E4FC0400019EC1
:10087000F317F01858406043FA218900FFF7DAFCBB
:100880000500030022003100044801F005FB2A00A6
:1008900021000198FFF7C8FE02B070BD882F000844
:1008A000001C001C001C001C001C001C001C001C68
:1008B000001C001C001C001C001C001C001C001C58
:1008C000001C001C7047C04610B5040000E01C006E
:1008D000FFF7E6FF631E002CF9D110BD70B50500CF
:1008E000002204219020C00501F008FA0920FFF73A
:1008F000EBFF01240DE022002A40531E9A41D2B2A0
:1009000004219020C00501F0F9F90920FFF7DCFF70
:10091000640080235B009C42EDD9012204219020D9
:10092000C00501F0EBF90920FFF7CEFF70BDC0460E
:1009300070B504002078002807D04D1E002904D08F
:100940000134FFF7CBFF2900F4E770BD10B5012299
:1009500004219020C00501F0D1F90A2000F0D8FB55
:10096000014801F029FB10BDA02F0008FEE7C0469A
:10097000FEE7C0467047C0467047C04610B500F05D
:10098000B5FB10BD82B00A4B996901200143996102
:100990009A6902400092009AD96980225205114357
:1009A000D961DB691A400192019B02B07047C046D1
:1009B0000010024010B588B004001422002103A8E2
:1009C00001F061FA2268134B9A4220D1124C6269FD
:1009D00080239B021A436261626913400193019B69
:1009E000C023DB000393122304930F3B06930133D0
:1009F000079303A99020C00501F0BEF8E2698023A7
:100A00009B031A43E261E26913400293029B08B020
:100A100010BDC046005400400010024010B5674BA6
:100A20005B680C221A421AD0644B5B681340082B97
:100A300003D1624B5B68DB0311D5604A1168012367
:100A40000B43136000F05EFB040004E000F05AFB6F
:100A5000001B02285FD8594B1B689B07F6D5574BE4
:100A60001A68F8218A4378390A431A60596B0422BC
:100A70000A435A63596B01220A435A6300F042FB4E
:100A8000040004E000F03EFB001B022843D84B4B5F
:100A90005B6B9B07F6D5494B5A6BF8218A43783933
:100AA0000A435A635B680C221340082B30D0434A38
:100AB0001168434B0B40136000F024FB040004E07A
:100AC00000F020FB001B022825D83C4B1B689B0133
:100AD000F6D43A4BDA6A0F218A43DA625968394A06
:100AE0000A40A02189030A435A601A6880214904F8
:100AF0000A431A6000F006FB040004E000F002FB69
:100B0000001B022807D82D4B1B689B01F6D502E07D
:100B10002A4B5A68DB6A2C4B1B68DB0707D42A4B2D
:100B20001A6801210A431A601B6819423CD0234B02
:100B30005A68E021C9000A435A605A68F0218A4382
:100B40005A601B689B012FD51C4B1B689B072BD53C
:100B50001A494B6803229343013A13434B6000F058
:100B6000D1FA040005E000F0CDFA001B174B9842C3
:100B70001AD8124B5B680C221340082BF3D1124B8E
:100B80001B680E4C6268124B1340636000F044FA1D
:100B900063681B090F2213400E4AD35CD8400E4BEA
:100BA0001860032000F06CFA044B1A6B03218A438F
:100BB0001A631A6B0D318A431A6310BD001002408C
:100BC000FFFFFFFEFFFFC2FF00200240881300006E
:100BD000FFF8FFFF043300083400002000B587B0A1
:100BE00017236B4418700122524202920232019282
:100BF0000093012300227821024800F0D5FD07B0C0
:100C000000BDC046CC04002000B585B001235B4286
:100C1000029389B201910090023340227821024868
:100C200000F0C2FD05B000BDCC04002010B50A23C1
:100C300003227821024800F089FE4342584110BD4A
:100C4000CC040020002307E0002801D1002100E0AF
:100C5000FF21034AD1540133024A9342F4D9704729
:100C6000B8000020FF03000010B5002412E02000AF
:100C70005038C0B2FFF7B2FF0020FFF7AFFF1020DF
:100C8000FFF7ACFFE3010548C0188021FFF7BCFF68
:100C90000134E4B2072CEAD910BDC046B8000020E8
:100CA00043B2002B1ADB3F2918D8012A0BD1CB08FD
:100CB000DB01181807231940063B8B40084A115CDA
:100CC0000B4313540AE0CB08DB0118180723194023
:100CD00001228A4002490B5C93430B547047C04683
:100CE000B8000020002305E09A00074952589042BE
:100CF00007D00133054A12689342F5DD01204042D6
:100D000000E018007047C046BC2F0008B82F00084C
:100D1000F0B5474680B484B00190029103921D0063
:100D2000FFF7E0FF80460300013336D0002628E0BD
:100D3000424653439B195B00039A9F5A00241BE0D1
:100D40003B00A3401B040AD5164B18885988891903
:100D5000C9B20019C0B22A00FFF7A2FF0BE0114B85
:100D6000188859886A426A41D2B28919C9B20019F1
:100D7000C0B2FFF795FF013402AB1B789C42DFD372
:100D8000013602AB5B789E42D2D302AB1B78054A98
:100D90001188CB181380019800E0002004B004BC37
:100DA0009046F0BDB804002030B583B00400009137
:100DB00001921D0009E02B000099019AFFF7A8FF9E
:100DC00003002078834203D1013420780028F2D137
:100DD00003B030BD014B188059807047B804002023
:100DE00010B504008120FFF7F9FE2000FFF7F6FEA2
:100DF00010BDC04610B5002804D00122054B5A7121
:100E0000AF2003E00022034B5A71AE20FFF7E6FE4D
:100E100010BDC046B804002010B5FFF707FF00283A
:100E200060D0642000F074F90020FFF7E3FF202079
:100E3000FFF7D4FE0020FFF7D1FEB020FFF7CEFE73
:100E4000C820FFF7CBFE0020FFF7C8FE1020FFF7F9
:100E5000C5FE4020FFF7C2FEFF20FFF7C1FFA12023
:100E6000FFF7BCFEA620FFF7B9FEA820FFF7B6FEED
:100E70003F20FFF7B3FEA420FFF7B0FED320FFF71B
:100E8000ADFE0020FFF7AAFED520FFF7A7FEF02059
:100E9000FFF7A4FED920FFF7A1FE2220FFF79EFE58
:100EA000DA20FFF79BFE1220FFF798FEDB20FFF70A
:100EB00095FE2020FFF792FE8D20FFF78FFE142075
:100EC000FFF78CFE0120FFF795FF0020FFF7BAFE29
:100ED000FFF7CAFE044B00221A805A8001321A71B1
:100EE000002000E0012010BDB804002000B585B04E
:100EF0000F226A441070FA239B0000930123802183
:100F0000024800F0E5FA05B000BDC046CC04002060
:100F100010B584B00C00C0B2FFF7E8FFFA239B00C5
:100F2000009302230E226A448021074800F086FBCA
:100F3000002806D10E236B441B881A021B0A134398
:100F4000238004B010BDC046CC04002010B584B08E
:100F50000B020E246C44090A19432180C0B2FFF72A
:100F6000C5FFFA239B000093022322008021024840
:100F700000F0AEFA04B010BDCC04002070B582B011
:100F80000E0014000138400083B2581C80B20233B6
:100F90009DB26B46991DFFF7BBFF00280FD16B4632
:100FA000991D0B889A00D31833602800FFF7B0FF13
:100FB000002806D16B4606331B88236002E001201F
:100FC00000E0012002B070BD10B502490020FFF71B
:100FD000BDFF10BD27C1000010B50A2303228021E8
:100FE000024800F0B3FC4342584110BDCC0400203D
:100FF00010B5FFF7F1FF002809D0FFF7E5FF0A2041
:1010000000F086F803490020FFF7A0FF00E0012070
:1010100010BDC0462741000010B588B0144C102206
:10102000210004A800F026FF21001031102268469C
:1010300000F020FF0F4B5A680C231340082B13D1EC
:10104000910C0F20014004AB5C5C0A4BDB6A03404F
:101050006946C95CD30304D50748FFF761F86043CC
:1010600003E00648604300E0034808B010BDC046F6
:10107000E82E00080010024000127A0000093D002E
:1010800010B504000E4B1978FA208000FFF748F8DD
:1010900001000C4B1868FFF743F800F07DFE0028B4
:1010A0000AD1032C0AD800222100013800F034FEB6
:1010B000054B1C60002002E0012000E0012010BD73
:1010C00030000020340000202C00002010B5064A1B
:1010D000116810230B4313600320FFF7D1FFFFF7C4
:1010E00051FC002010BDC04600200240034A136896
:1010F00003490978CB1813607047C04618050020D3
:1011000030000020014B18687047C04618050020C9
:1011100070B50400FFF7F6FF0500631C02D0044B16
:101120001B78E418FFF7EEFF401B8442FAD870BD2D
:101130003000002003689A69920701D500229A6264
:1011400003689A69D20703D4996901220A439A6114
:101150007047C046F0B51C00059D066873686F0DAA
:101160008020C0003840064F3843834318008B0569
:101170009B0D1204134323432B4303437360F0BDC1
:10118000FF63FF0370B504000E00150003689A6941
:10119000D2063CD55A6892011BD45A688021C901F5
:1011A0000A435A6015E0731C13D0FFF7ABFF401BD6
:1011B000864201D3002E0CD1636C2022134363645A
:1011C0004123E25400232232A354023AA3540120C3
:1011D0001EE023689A699206E5D51022DA61236839
:1011E0002025DD612000FFF7A5FF22685168094B2B
:1011F0000B405360626C0423134363644123E55442
:1012000000234222A354023AA354012000E000200C
:1012100070BDC04600E800FE70B504000D00160069
:101220001CE0320029002000FFF7ACFF00281BD192
:101230006B1C13D0FFF766FF801B854201D3002D86
:101240000CD1636C2022134363644123E2540023D6
:101250002232A354023AA354012006E023689B697A
:101260009B07DED5002000E0012070BDF8B5050029
:101270000F0016001C0016E0631C14D0FFF742FF9D
:10128000069BC01A844201D3002C0CD16B6C202227
:1012900013436B644123EA5400232232AB54023AD5
:1012A000AB54012009E02B689B693A009A43130074
:1012B0005A425341B342DFD00020F8BD70B582B02E
:1012C000040015001E00DAB2184B009380235B0463
:1012D000FFF740FF079A06992000FFF79DFF0028BF
:1012E0001ED1012E03D12368EDB29D620CE023686C
:1012F0002A0A9A62079A06992000FFF78DFF0028B4
:1013000010D12368EDB29D62079B0093069B0022DB
:1013100080212000FFF7AAFF002804D0012002E06E
:10132000012000E0012002B070BDC0460020008016
:1013300070B505000C0016001AE0320021002800EC
:10134000FFF720FF002819D1FFF7DCFE801B844245
:1013500001D3002C0CD16B6C202213436B6441230E
:10136000EA5400232232AB54023AAB54012006E087
:101370002B689B699B06E0D5002000E0012070BD32
:1013800070B504000D00160033E032002900200083
:10139000FFF7F8FE002832D123689A69920616D525
:1013A0009A69520702D5228D002A29D12022DA61BA
:1013B00021684868134B03404B600023636441215C
:1013C00062542232A354023AA354012018E0FFF7DA
:1013D00099FE801B854201D3002D0AD1636C202227
:1013E000134363644123E2540022013BE254012091
:1013F00006E023689B695B07C7D5002000E0012059
:1014000070BDC04600E800FE10B5041E57D0412351
:10141000C35C002B04D100224033C254FFF7CAFA48
:1014200024224123E2542268136801218B43136074
:101430002268244B61680B40136122689168224B3B
:101440000B409360E368012B06D1226880231B02C6
:10145000A1680B43936005E0226884231B02A16806
:101460000B439360E368022B03D1236880221201AF
:101470005A602268536815490B4353602268D1684B
:10148000114B0B40D3602168226963691A43A36939
:101490001B021343CB602268E369216A0B4313608C
:1014A0002268116801230B43136000236364202129
:1014B0004122A15423630132A354002000E0012003
:1014C00010BDC046FFFFFFF0FF7FFFFF008000025E
:1014D000F0B585B00400039116001D004123C35CE4
:1014E000202B00D099E02033C35C012B00D196E083
:1014F00001224023C254FFF705FE07000090192384
:101500000122802109022000FFF7B0FE002800D050
:1015100087E021224123E254113A0133E2540023AF
:101520006364666265856363638D9BB2FF2B0BD931
:10153000FF2323853F4B009380235B04EF32039905
:101540002000FFF707FE4DE0628D92B22285D2B2F5
:10155000384B009380239B0403992000FFF7FAFD8A
:1015600040E03A000A992000FFF756FE00285AD1C1
:101570002368626A12789A62636A01336362638DD8
:10158000013B9BB26385238D013B9BB22385628D1A
:1015900092B2002A26D0002B24D100970A9B002269
:1015A00080212000FFF762FE00283ED1638D9BB2B0
:1015B000FF2B0BD9FF2323850023009380235B049B
:1015C000FF2203992000FFF7C5FD0BE0628D92B268
:1015D0002285D2B20023009380239B04039920002C
:1015E000FFF7B8FD638D9BB2002BBAD13A000A9980
:1015F0002000FFF79DFE002819D123682022DA6120
:1016000021684D680C4B2B404B604123E254002372
:101610002232A354023AA3540AE0022008E0022036
:1016200006E0012004E0012002E0012000E00120AA
:1016300005B0F0BD0020008000E800FEF0B585B0E8
:101640000400039116001D004123C35C202B00D031
:1016500099E02033C35C012B00D196E001224023A6
:10166000C254FFF74FFD070000901923012280218B
:1016700009022000FFF7FAFD002800D087E02222AF
:101680004123E254123A0133E25400236364666258
:1016900065856363638D9BB2FF2B0BD9FF23238585
:1016A0003F4B009380235B04EF3203992000FFF748
:1016B00051FD4DE0628D92B22285D2B2384B00933B
:1016C00080239B0403992000FFF744FD40E03A008B
:1016D0000A992000FFF754FE00285AD123685B6A5C
:1016E000626A1370636A01336362238D013B9BB2AC
:1016F0002385628D013A92B26285628D92B2002A90
:1017000026D0002B24D100970A9B002280212000A4
:10171000FFF7ACFD00283ED1638D9BB2FF2B0BD9A8
:10172000FF2323850023009380235B04FF2203997A
:101730002000FFF70FFD0BE0628D92B22285D2B23E
:101740000023009380239B0403992000FFF702FDF0
:10175000638D9BB2002BBAD13A000A992000FFF7A3
:10176000E7FD002819D123682022DA6121684D683D
:101770000C4B2B404B604123E25400232232A354F4
:10178000023AA3540AE0022008E0022006E0012009
:1017900004E0012002E0012000E0012005B0F0BDDE
:1017A0000024008000E800FEF0B587B007000C00C0
:1017B000039204930CAB40CB1D884123C35C202BC8
:1017C00000D0B3E0002E01D0002D04D180239B0077
:1017D0007B640120B5E04023C35C012B00D1A7E06E
:1017E00001224023C254FFF78DFC0590009019237D
:1017F0000122802109023800FFF738FD002800D0BF
:1018000098E021224123FA541F320133FA54002375
:101810007B647E627D857B63059B01930E9B0093B9
:10182000049B039A21003800FFF748FD002804D0EC
:1018300000224023FA54012083E07B8D9BB2FF2BD2
:101840000BD9FF233B850023009380235B04FF22F9
:1018500021003800FFF77EFC0BE07A8D92B23A85CA
:10186000D2B20023009380239B0421003800FFF7AD
:1018700071FC059A0E993800FFF7CEFC00285BD169
:101880003B687A6A12789A627B6A01337B627B8D4D
:10189000013B9BB27B853B8D013B9BB23B857A8DA7
:1018A00092B2002A27D0002B25D1059B00930E9BD6
:1018B000002280213800FFF7D9FC00283ED17B8D23
:1018C0009BB2FF2B0BD9FF233B8500230093802382
:1018D0005B04FF2221003800FFF73CFC0BE07A8D0F
:1018E00092B23A85D2B20023009380239B04210058
:1018F0003800FFF72FFC7B8D9BB2002BB9D1059AE6
:101900000E993800FFF714FD002819D13B682022FA
:10191000DA6139684C680C4B23404B604123FA5420
:1019200000232232BB54023ABB540AE0022008E0F2
:10193000022006E0012004E0012002E0012000E096
:10194000012007B0F0BDC04600E800FEF0B587B04A
:1019500006000C0003921F00002305934133C35C73
:10196000202B00D0A2E003689B691B0400D59FE0F8
:101970004023C35C012B00D19CE001224023C254D0
:1019800023320133C254002343643268F368012BCD
:1019900004D1A3059B0D4C490B4304E0A3059B0D0B
:1019A000A02189010B435360FFF7ACFB05003268AF
:1019B000936920210B40591E8B41D9B292691023A3
:1019C0001A40531E9A41D3B220E07B1C11D0FFF77E
:1019D00099FB401B874201D3002F0AD120234122CB
:1019E000B354726C1343736400224023F2540120F9
:1019F00067E03268936920210B40591E8B41D9B2B0
:101A0000926910231A40531E9A41D3B20B43DCD083
:101A100033689B69DB0611D400953B00002220212E
:101A20003000FFF723FC002846D132682023D36121
:101A30004122B35400222033F25442E000953B008F
:101A4000002220213000FFF711FC002836D1336836
:101A50001022DA6133681032DA61059B039A9342EF
:101A600011D1326853688021C9010B43536000953E
:101A70003B00002220213000FFF7F8FB00281FD197
:101A800033682022DA61059B01330593059B039A95
:101A90009A4200D979E720224123F254736C134310
:101AA000736400224023F25401200AE0022008E07F
:101AB000022006E0022004E0012002E0012000E014
:101AC000012007B0F0BDC04600200002F0B5412360
:101AD000C35C202B20D12033C35C012B1ED04024BB
:101AE00001230355412524224255066832689A4352
:101AF0003260066837680A4A3A40326002681668FF
:101B000031431160026811680B4313602023435571
:101B100000230355002002E0022000E00220F0BD77
:101B2000FFEFFFFFF0B54123C35C202B1ED1203314
:101B3000C35C012B1CD040240123035541252422E2
:101B40004255066832689A43326006683768094A27
:101B50003A40090211433160026811680B43136077
:101B60002023435500230355002002E0022000E01B
:101B70000220F0BDFFF0FFFFF0B583B00023A9E025
:101B800001249C40224000D1A3E003254E6835404B
:101B9000013D012D11D885685F000326BE40B54385
:101BA000CE68BE40354385604668A6434C6825092B
:101BB00001242C409C403443446003244D682C4055
:101BC000032C08D0C4685E000325B540AC438D6883
:101BD000B5402C43C46003244D682C40022C0ED128
:101BE000DC080834A400275807251D40AD000F2647
:101BF000AE40B7430E69AE403D0035432550056801
:101C00005E0003242700B740BD434F683C40B4400A
:101C10002C430460C024A4024D68254259D0314DA4
:101C2000AE6901273E43AE61AC693C400194019C22
:101C30009C08A51CAD002C4EAF5903251D40AD00DE
:101C40000F26AE40B7439026F605B0420AD0274E85
:101C5000B04209D0264EB04208D0264EB04207D13D
:101C6000032606E0002604E0012602E0022600E04A
:101C70000526AE4035003D430234A4001A4EA5515E
:101C80001D4C2568D44326002E404F68FF0301D524
:101C900015432E00184D2E606D682E0026404F68AB
:101CA000BF0301D515432E00134D6E60AD682E00A5
:101CB00026404F68FF0201D515432E000E4DAE6041
:101CC000ED682C404E68B60201D52A4314000A4A3A
:101CD000D46001330A681400DC4000D050E703B040
:101CE000F0BDC04600100240000001400004004862
:101CF00000080048000C004800040140002A01D000
:101D0000816100E08162704742690B0013401B044F
:101D1000914319438161704770B5002811DB820837
:101D2000144DC0329200545903231840C000FF26BE
:101D3000330083409C43890131408140214351510C
:101D400016E0C0B20F230340083B9B0806339B00FC
:101D5000094A944663445A6803242040C000FC3476
:101D600025008540AA4389012140814011435960E3
:101D700070BDC04600E100E000ED00E0BFF34F8F12
:101D8000034A044BDA60BFF34F8FC046FDE7C046FD
:101D90000400FA0500ED00E001380A4B98420FD824
:101DA000094A506009490B6A1B021B0AC020000641
:101DB00003430B620023936007331360002000E0AD
:101DC00001207047FFFFFF0010E000E000ED00E0A1
:101DD0007047C0460D4885460D480E490E4A0023FF
:101DE00002E0D458C4500433C4188C42F9D30B4ACF
:101DF0000B4C002301E013600432A242FBD3FFF737
:101E0000E7FF00F011F8FEF79FFBFEE7001000204F
:101E1000000000209C000020B43300089C0000203B
:101E200020050020FEE700000E4B70B500251E00C7
:101E30000D4CE41AA410A54204D0AB00F358984707
:101E40000135F8E701F044F8084B00251E00084C66
:101E5000E41AA410A54204D0AB00F358984701350A
:101E6000F8E770BDAC330008AC330008AC330008B1
:101E7000B0330008002310B59A4203D0CC5CC454A0
:101E80000133F9E710BD03008218934202D01970A4
:101E90000133FAE7704700000FB40B4B13B51C6811
:101EA000002C05D0A369002B02D1200000F04EFACF
:101EB00005AB049AA1682000019300F013FC16BC46
:101EC00008BC04B01847C04698000020084B70B505
:101ED0001C680500002C05D0A369002B02D120004E
:101EE00000F034FA2900A268200000F0A7FE70BDBF
:101EF0009800002070B505000E00002804D083690A
:101F0000002B01D100F022FAAB69AC68002B02D1A2
:101F1000280000F01BFA254B9C4201D16C6808E0B8
:101F2000234B9C4201D1AC6803E0224B9C4200D180
:101F3000EC68A3891B0702D52369002B11D121006E
:101F4000280000F099F800280BD0012040422BE037
:101F5000013B0136A360002B08DB23685A1C22607A
:101F600019703178A3680029F2D10BE0A26993427D
:101F700001DB0A29F1D12200280000F027F8431CD8
:101F8000EFD1E2E7013BA360002B08DA22000A311F
:101F9000280000F01BF8431CD7D00A2004E00A20D8
:101FA00023685A1C2260187070BDC04618330008A0
:101FB000383300085833000810B5034B0100186887
:101FC000FFF798FF10BDC04698000020F8B5050047
:101FD0000F001400002804D08369002B01D100F009
:101FE000B5F9224B9C4201D16C6808E0204B9C4221
:101FF00001D1AC6803E01F4B9C4200D1EC68A3699F
:10200000A360A3891B070AD52369002B07D0236887
:102010002269FEB2981A636998420FDB08E021003A
:10202000280000F029F80028F1D0012676421BE0B4
:102030002100280000F01CF90028F6D1A368013027
:10204000013BA36023685A1C22601F706369984299
:1020500004D0A389DB0707D50A2E05D1210028006B
:1020600000F006F90028E0D13000F8BD1833000870
:102070003833000858330008364B70B51D68060029
:102080000C00002D05D0AB69002B02D1280000F018
:102090005DF9314B9C4201D16C6808E02F4B9C42AA
:1020A00001D1AC6803E02E4B9C4200D1EC680C22BD
:1020B000A35E9AB2110723D4D10607D409220120C6
:1020C000326037321343A381404242E0530713D5B5
:1020D000616B002908D023004433994202D03000BC
:1020E00000F02CFA002363632422A3899343A38185
:1020F00000236360236923600822A3891343A3811B
:102100002369002B0BD1A0238022A1899B00920080
:102110000B40934203D02100300000F0D1F901239D
:10212000A289134005D00023A36063695B42A361C9
:1021300003E0920700D46369A3600020236983420F
:1021400007D10C22A35E1A0603D540221343A381B4
:10215000013870BD9800002018330008383300089B
:1021600058330008F7B58A8905000C0013075AD4C4
:102170004B68002B02DC0B6C002B19DDE76A002F8B
:1021800016D000232E682B6080235B011A4001D0FB
:10219000606D14E00123216A2800B847431C0ED16A
:1021A0002B68002B0BD01D2B01D0162B02D12E60DB
:1021B00000205AE04022A3891343A38155E0A3895C
:1021C0005B0706D56368C01A636B002B01D0236CD4
:1021D000C01A00230200216A2800E76AB847A389D1
:1021E000421C06D129681D293AD8204ACA40D20784
:1021F00036D50022626022692260DB0405D5431CCB
:1022000002D12B68002B00D16065616B2E60002924
:10221000CED023004433994202D0280000F08EF93A
:102220000020606321E00F69002FC1D00B680F60B0
:10223000DB1B01930023920700D14B69A36003E0ED
:10224000019B3F181B1A0193019B002BB0DD019BE2
:102250003A00216A2800A66AB0470028F0DCA3896A
:10226000402201201343A3814042FEBD01004020D3
:102270000B6970B505000C00002B01D100201CE09B
:10228000002804D08369002B01D100F05FF80B4BCC
:102290009C4201D16C6808E0094B9C4201D1AC68BA
:1022A00003E0084B9C4200D1EC680C22A35E002B9B
:1022B000E4D021002800FFF755FF70BD1833000857
:1022C000383300085833000810B5024900F0B0F860
:1022D00010BDC04671220008002310B50400036041
:1022E0004360836081814366C2810361436183618E
:1022F000190008225C30FFF7C6FD054B24626362BB
:10230000044BA362044BE362044B236310BDC0463D
:10231000CD2C0008F52C00082D2D0008592D0008A3
:1023200070B568254B1E5D430E002900743100F026
:1023300051F9041E08D000212A00016046600C30CB
:10234000A0606832FFF79FFD200070BD836913B560
:102350000400002B28D18364C3640365134B144A23
:102360001B6882620193984201D10123836120009E
:1023700000F020F86060200000F01CF8A060200051
:1023800000F018F80022E06004216068FFF7A4FF65
:1023900001220921A068FFF79FFF02221221E068B5
:1023A000FFF79AFF0123A36113BDC0461433000851
:1023B000C9220008F8B51D4B06001D68AB69002B4B
:1023C00002D12800FFF7C2FF4835AC686B68013BBB
:1023D00005D40C22A75E002F10D06834F7E72B68D5
:1023E000002B01D02D68F0E704213000FFF798FFA3
:1023F00028600028F6D10C23336016E0012320006A
:102400005B42E3810233A38167662760A760676050
:1024100027616761A7615C3008223900FFF733FD4F
:1024200020006763A763A764E764F8BD143300085E
:10243000F7B504000700002601914834002C16D09F
:102440006368A5680093009B013B00930DD4AB89A2
:10245000012B08D90E22AB5E013304D029003800CD
:10246000019B984706436835EDE72468E6E73000AE
:10247000FEBD000070B50E001D000E23C95E90B0B9
:102480001400002906DA00232B60B3891B060FD540
:1024900040230FE001AA00F08BFC0028F3DBF023BF
:1024A000029A1B021340054A9B185A4253412B6063
:1024B0008023DB000020236010B070BD00E0FFFF30
:1024C000F7B502268B8905000C00334210D101AB11
:1024D0006A46FFF7CFFF00990700280000F07AF85E
:1024E00000280CD10C22A35E9A0523D43343A38188
:1024F0002300473323602361012363611AE08022B4
:102500000D4BAB62A38920601343A381009B206124
:102510006361019B002B0AD00E23E15E280000F0CE
:1025200059FC002803D00122A3891343A381A38966
:102530001F43A781F7BDC046C922000870B505003A
:10254000002944D00C1F2368002B00DAE41828006F
:1025500000F071FC1E4A13681100002B02D1636069
:10256000146031E0A3420DD92268A018834203D140
:1025700018685B688218226063600C6024E0A242E5
:1025800003D813005A68002AF9D11E689819A0428E
:102590000BD12168711858181960824214D1106843
:1025A0005268411819605A600EE0A04202D90C230B
:1025B0002B6009E021686018824203D110685268DC
:1025C0004118216062605C60280000F035FC70BD3D
:1025D000C4040020032370B5CD1C9D4308350600BC
:1025E0000C2D01D20C2501E0002D01DBA94202D9FE
:1025F0000C23336048E0300000F01DFC234B1C68C6
:102600001A002100002913D00B685B1B0DD40B2B83
:1026100002D90B60CC181EE08C4202D163681360B3
:102620001AE04B6863600C0016E00C004968E9E7AB
:10263000174C2368002B03D1300000F035FB2060DD
:102640002900300000F030FB431C18D00323C41CC9
:102650009C43A0420DD12560300000F0EDFB20002E
:1026600007220B30231D9043C31A0ED05A42E2506A
:102670000BE0211A300000F017FB431CEBD10C23B8
:102680003000336000F0D8FB002070BDC40400208F
:10269000C0040020936810B5013B9360002B05DA5D
:1026A0009469A34208DBCBB20A2B05D01368581CEF
:1026B00010601970C8B201E0FFF788FC10BDF8B5D2
:1026C00006000F001400D518AC4208D021783A005B
:1026D0003000FFF7DFFF0134431CF5D100E000209C
:1026E000F8BD0000F0B59FB006000F000292059300
:1026F000002804D08369002B01D1FFF727FE7F4B10
:102700009F4201D1776808E07D4B9F4201D1B768B5
:1027100003E07C4B9F4200D1F768BB891B070AD5B9
:102720003B69002B07D0002306AD6B6120336B762D
:102730001033AB763DE039003000FFF79DFC0028F8
:10274000F1D001204042D6E0059A111D1268059192
:10275000002A00DA7FE00992013423782E2B00D181
:102760008DE021780322684800F05AFB002807D04A
:10277000654B2A68C01A4023834013432B60013401
:102780002178631C062261480293297600F048FBF9
:10279000002800D19DE05E4B002B00D090E0072286
:1027A000059B07339343083305936B69039A9B1882
:1027B0006B61029C2378002B04D1029BE31A0493E3
:1027C00012D003E0252BF8D00134F3E7049B029AE2
:1027D00039003000FFF773FF431C00D186E06A69BF
:1027E000049B944663446B612378002B7ED00122C6
:1027F000002352426A6002A95432521801342B60FD
:10280000EB60AB601370AB6521780522414800F0A6
:1028100007FB002808D03F4B2A68C01A01238340D9
:1028200013432B600134EFE72B68DA0604D55322FB
:10283000202102A8121811701A0704D553222B2147
:1028400002A81218117022782A2A00D17CE7099B6D
:1028500000200A2105E05242EA60022213432B6065
:102860007AE72278303A092A04D84B4301349B187E
:102870000120F6E7002800D16FE709936DE7637840
:102880002A2B0AD1059B02341A1D1B680592002BC6
:1028900001DA01235B42079363E700230A201A0051
:1028A00001346B6021783039092904D8424301345E
:1028B00052180123F6E7002B00D152E7079250E7A8
:1028C00005AB00933A00144B2900300000E000BF34
:1028D00007E005AB00933A000F4B2900300000F0F1
:1028E0008BF80390039B013300D05EE7BB895B0646
:1028F00000D526E70B981FB0F0BDC046183300087E
:1029000038330008583300087E330008823300084B
:102910000000000078330008BF260008F7B5170054
:1029200001938A680B6900900C00934200DA13004F
:1029300022003B6043321278002A01D001333B6011
:1029400023689B0602D53B6802333B60062523685B
:102950001D401ED0230043331B785A1E934122682A
:1029600092061CD53020E1184331087021005A1C12
:1029700045310978A2184332023311700FE022006A
:102980000123193201990098089EB047431C0ED0CC
:102990000135E3683A689B1A9D42F0DBDAE72200D2
:1029A000019943320098089DA847431C02D1012099
:1029B000404220E006232068E1683A680340002591
:1029C000042B03D18D1AEB43DB171D40A36822694A
:1029D000934201DD9B1AED180027BD420AD0220068
:1029E00001231A3201990098089EB047431CDED09B
:1029F0000137F2E70020FEBDF0B58BB006920A0069
:102A000043320793059004920A7E0C00109B6E2AB5
:102A100000D1ABE011D8632A22D009D8002A00D116
:102A2000B5E0582A00D0C5E045310A70814A4FE030
:102A3000642A1DD0692A1BD0BCE0732A00D1AAE009
:102A400009D86F2A29D0702A00D0B3E02022096863
:102A50000A43226037E0752A1FD0782A33D0A9E0D4
:102A60000E001A684236111D196013683370A4E015
:102A700021681A68080606D4490604D5111D196094
:102A80000023D55E02E0111D19601568002D3BDAA8
:102A90002D23049A6D42137036E021681A680806E7
:102AA00006D4490604D51568111D1960ADB202E0BF
:102AB000111D196015685F4B227E039308276F2A4A
:102AC0001DD00A271BE022007821453211705A4A96
:102AD00019680392081D226818600D68100602D458
:102AE000500600D5ADB2D30702D520231A43226089
:102AF0001027002D03D1202322689A43226023004F
:102B0000002243331A7002E00A274A4B039363689A
:102B1000A360002B09DB0422216891432160002D72
:102B200005D1049E002B11D07BE0002D79D0049EAE
:102B300028003900FDF77AFB039B013E5B5C28000F
:102B400033703900FDF7ECFA051EF1D1082F09D1D9
:102B50002368DB0706D563682269934202DC3023D1
:102B6000013E3370049B9B1B23612BE009681A68AC
:102B7000080607D4490605D5111D19601368A28AF5
:102B80001A8004E0111D1960136862691A6000233D
:102B9000049E236116E01A68111D19601668002151
:102BA0006268300000F03CF9002801D0801B6060B2
:102BB000636803E02600423632700123236100235C
:102BC000049A1370079B09AA00932100069B05989D
:102BD000FFF7A4FE431C02D10120404227E02369F5
:102BE000320006990598079DA847431CF4D0236836
:102BF00000259B070FD4099BE068984217DA18005C
:102C000015E022000123193206990598079EB04766
:102C1000431CE1D00135E368099A9B1A9D42F0DB21
:102C2000E9E72600039B42361B7833708EE70BB032
:102C3000F0BDC046893300089A33000870B506001D
:102C40000D001400002804D08369002B01D1FFF788
:102C50007DFB124B9C4201D1746808E0104B9C42F2
:102C600001D1B46803E00F4B9C4200D1F468A36823
:102C7000013BA360002B05DAA269934208DBEBB2AB
:102C80000A2B05D02368E8B25A1C22601D7004E0AC
:102C9000220029003000FFF799F970BD18330008B1
:102CA0003833000858330008002370B5064C05007F
:102CB0000800236000F0FEF8431C03D12368002BBA
:102CC00000D02B6070BDC0461C05002070B50C0004
:102CD0000E25495F00F0B2F8002803DB636D1B1876
:102CE000636503E0A289024B1340A38170BDC04617
:102CF000FFEFFFFFF8B51F008B8905000C001600E1
:102D0000DB0505D50E23C95E0022022300F074F80E
:102D1000A289054B28001340A38132000E23E15EF7
:102D20003B0000F01FF8F8BDFFEFFFFF70B50C008F
:102D30000E25495F00F060F8A389421C03D1054AC3
:102D40001340A38104E0802252011343A3816065F4
:102D500070BDC046FFEFFFFF10B50E23C95E00F047
:102D600015F810BD70B50500080011000022064CD2
:102D700022601A00FDF71CFC431C03D12368002BC2
:102D800000D02B6070BDC0461C050020002370B52C
:102D9000064C05000800236000F064F8431C03D1D2
:102DA0002368002B00D02B6070BDC0461C0500209E
:102DB000002370B5064C050008001100236000F0E8
:102DC00059F8431C03D12368002B00D02B6070BD41
:102DD0001C050020002370B5064C05000800236088
:102DE00000F050F8431C03D12368002B00D02B6067
:102DF00070BDC0461C05002070B50500080011001C
:102E00000022064C22601A0000F044F8431C03D153
:102E10002368002B00D02B6070BDC0461C0500202D
:102E2000C9B28218904204D003788B4202D001309C
:102E3000F8E70020704770477047000070B5050044
:102E4000080011000022064C22601A0000F02AF847
:102E5000431C03D12368002B00D02B6070BDC046FB
:102E60001C05002058220120014B40421A60704787
:102E70001C05002058220120014B40421A60704777
:102E80001C0500205822024B00201A607047C046E3
:102E90001C05002058220120014B40421A60704757
:102EA0001C05002058220120014B40421A60704747
:102EB0001C050020044A1368002B03D0181810606A
:102EC00018007047014BF9E7C804002020050020D6
:102ED000F8B5C046F8BC08BC9E467047F8B5C04679
:082EE000F8BC08BC9E467047D7
:102EE80002030405060708090A0B0C0D0E0F101043
:102EF8000102030405060708090A0B0C0D0E0F1042
:102F0800736B753A2025640D0A0000000D0A53639F
:102F1800616E6E696E6720493243206275733A0D9F
:102F2800000000000D0A3078253032580D0A0000E4
:102F38000D000000323032322E31312E3035000093
:102F480056312E30000000005665723A2025732D48
:102F580025730D0A00000000737364313330362086
:102F6800696E6974206661696C210D00696E613350
:102F780032323120696E6974206661696C210D00F6
:102F88002535646D56202C202534646D412C202570
:102F980035646D570D0A00000D0A4750494F5F55BB
:102FA8004152545F496E697420446F6E650D00008C
:102FB8001500000020000000300000003100000073
:102FC800320000003300000034000000350000002B
:102FD800360000003700000038000000390000000B
:102FE80041000000490000005000000056000000A9
:102FF800570000006D0000002E0000003C0000009B
:103008003D0000003E00000000000000000000003D
:1030180000000000000000000000000000000000A8
:103028000000000000000000000000000000001E7A
:10303800003F0033806180618061806D806D8061B8
:10304800806180610033003F001E00000000000026
:1030580000000006000E001E0036002600060006CE
:10306800000600060006000600060006000600002E
:10307800000000000000001E003F80738061806136
:10308800800100030006000C001800300060807FFB
:10309800807F0000000000000000001C003E00636C
:1030A80000630003000E000E0003800180018061B0
:1030B8008073003F001E00000000000000000006B2
:1030C800000E000E001E001E0016003600360066B8
:1030D800807F807F000600060006000000000000D8
:1030E8000000007F007F006000600060006E007FCD
:1030F80080638001800180618073003F001E0000B2
:10310800000000000000001E003F80338061006066
:10311800006E007F80738061806180618033003F32
:10312800001E0000000000000000807F807F8001FA
:103138000003000300060006000C000C000C000849
:103148000018001800180000000000000000001E11
:10315800003F8063806180610021001E003F806124
:10316800806180618061003F001E00000000000057
:103178000000001E003F00738061806180618073E1
:10318800803F801D800180610073003F001E0000A9
:10319800000000000000000E000E001B001B001BBA
:1031A800001B80318031803F803F8031C060C0602B
:1031B800C0600000000000000000003F003F000C5D
:1031C800000C000C000C000C000C000C000C000C97
:1031D800000C003F003F0000000000000000007EDF
:1031E800007F80638061806180618063007F007EF2
:1031F80000600060006000600060000000000000E7
:103208000000C060C060C060803180318031001B28
:10321800001B001B001B000E000E000E0004000027
:10322800000000000000C0C0C0C0C0C0C0C0C0C016
:10323800C0CC804C804C805E80528052807380610C
:103248008061000000000000000000000000000095
:10325800000080DDC0FFC0CEC0CCC0CCC0CCC0CC8C
:10326800C0CCC0CCC0CC00000000000000000000B2
:103278000000000000000000000000000000000046
:10328800000000000000000C000C0000000000001E
:10329800000000006000E000E001E007E01FE07FC0
:1032A800E0FFE0FFE07FE01FE007E001E0006000F2
:1032B8000000000000000000000000000000000006
:1032C800E0FFE0FFE0FFE0FFE0FFE0FF00000000BC
:1032D80000000000000000000000000000C000E046
:1032E80000F000FC00FFC0FFE0FFE0FFC0FF00FFB0
:1032F80000FC00F000E000C000000000000000003A
:103308000000000001020304060708093800002035
:1033180000000000000000000000000000000000A5
:103328000000000000000000000000000000000095
:103338000000000000000000000000000000000085
:103348000000000000000000000000000000000075
:103358000000000000000000000000000000000065
:103368000000000000000000000000000000000055
:10337800232D302B2000686C4C0065666745464756
:1033880000303132333435363738394142434445D9
:103398004600303132333435363738396162636448
:0433A8006566000056
:0433AC00E90000082C
:0433B000C100000850
:1033B40049202035303030206D410000502039390B
:1033C4002E3957203D3E0000562032303030302018
:1033D4006D5600000B1200001030000804000000BD
:1033E4000100000000127A000000000018330008F9
:1033F40038330008583300080000000000000000C3
:1034040000000000000000000000000000000000B8
:1034140000000000000000000000000000000000A8
:103424000000000000000000000000000000000098
:103434000000000000000000000000000000000088
:0C34440000000000000000003800002024
:0400000508001DD5FD
:00000001FF
